:03000000020250A9
:0400030002200332A2
:04000B0002200B3292
:040013000220133282
:04001B0002201B3272
:040023000220233262
:04002B0002202B3252
:10003D00743F31D031C280F875210031C2B42FF830
:10004D0031B12008F385111331B12008EB8511145E
:10005D0031C2B40DE3744031D03099FDC014C013DA
:10006D0022E4F510F520F513F514F517F518F5162E
:10007D00F519F51AF521D20B31C231D8F50F11A5AD
:10008D003002F531D0742831D0E5195128E51A51D7
:10009D0028742931D0511F22E510540F239000AE42
:1000AD007301CE01D601FD01D6210601D6210F0126
:1000BD00D6211801D6213401D62152217121722168
:1000CD0072E50FB43A02051022E50F300008540F07
:1000DD00C4F511051022D208D20222E50F30000B13
:1000ED00540F4511F5112516F51622D208D202220C
:1000FD0011E8E511F51205102211E8E511F51305CA
:10010D00102211E8E511F51405102211E8E511F59D
:10011D0015600CB4010CD201D20375100B800205D1
:10012D001022D209D2022211E820030F3176E511F7
:10013D00251AF51AE43519F519E511D5120405102E
:10014D00800215102211E8300104D2028010E5164C
:0E015D00700D751600751000851418851317A7
:10016B0022D20AD202222275100D22851383851406
:10017B0082E511F0E0B51113C20BA38583138582C1
:10018B0014E4B51305B51402D20C22D20DD20222FF
:10019B00E587D2E7F587758DE5758BE57589207554
:1001AB0088407598522231C231D8F50F11D631C221
:1001BB0031D8F50F11E8223098FDC298E599B41BA0
:1001CB0003020250223099FDC299F59922B43000F6
:1001DB00401EB43A004020B441004014B4470040E4
:1001EB0013B46100400AB467005005C3942780071D
:1001FB00C2008008C39407C39430D20022540FB4BA
:10020B000A0040022407243022743A31D0E52160E1
:10021B0002512822740D31D0740A31D022C0E0C4AF
:0B022B00510831D0D0E0510831D02242
:1002500075A80075815F319B511F743D31D0116EBF
:0C0260005114E521600302003D0200453E
:00000001FF
